S01500004452495645525F4745524745532E7372656327
S11300000C942A000C943F000C943F000C943F0085
S11300100C943F000C943F000C943F000C943F0060
S11300200C943F000C943F000C943F000C943F0050
S11300300C943F000C943F000C943F000C943F0040
S11300400C943F000C943F000C943F000C943F0030
S11300500C943F0011241FBECFE5D8E0DEBFCDBF16
S113006010E0A0E6B0E0EAE3F7E002C005900D92EC
S1130070A038B107D9F70E9473000C949B030C9429
S11300800000677096B1987F96B996B1692B66B9EE
S1130090813051F018F0823069F011C087B18F7748
S11300A087B987B187B90BC087B1806887B987B131
S11300B087B905C087B1806887B987B187B987B127
S11300C08F7D87B986B186B9089597B1907E97B927
S11300D097B1892B87B986B1806886B93799FECFE5
S11300E088B190E008950E9482010E94D70266E0E0
S11300F081E00E94410080E00E946500682F70E06A
S113010080E090E00E94F902F6CF982F969596959C
S113011096958770613009F455C020F0623009F477
S1130120A1C008959130C1F028F0923039F1933094
S1130130B9F108954AB321E030E0B90102C0660F75
S1130140771F8A95E2F7CB01942F982B9ABB9BB328
S1130150809589238BBB089547B321E030E0B90132
S113016002C0660F771F8A95E2F7CB01942F982B74
S113017097BB98B38095892388BB089544B321E045
S113018030E0B90102C0660F771F8A95E2F7CB0110
S1130190942F982B94BB95B38095892385BB0895A0
S11301A041B321E030E0B90102C0660F771F8A95A0
S11301B0E2F7CB01942F982B91BB92B380958923BE
S11301C082BB08959130C1F028F0923039F1933018
S11301D0B9F108954AB321E030E0B90102C0660FD5
S11301E0771F8A95E2F7CB018095942F98239ABBC9
S11301F09BB389238BBB089547B321E030E0B90159
S113020002C0660F771F8A95E2F7CB018095942F81
S1130210982397BB98B3892388BB089544B321E0FE
S113022030E0B90102C0660F771F8A95E2F7CB016F
S11302308095942F982394BB95B3892385BB089507
S113024041B321E030E0B90102C0660F771F8A95FF
S1130250E2F7CB018095942F982391BB92B3892325
S113026082BB08959130C1F028F0923039F1933077
S1130270B9F108954AB321E030E0B90102C0660F34
S1130280771F8A95E2F7CB01962F909594239ABB1A
S11302909BB3892B8BBB089547B321E030E0B901B0
S11302A002C0660F771F8A95E2F7CB01962F9095CF
S11302B0942397BB98B3892B88BB089544B321E05A
S11302C030E0B90102C0660F771F8A95E2F7CB01CF
S11302D0962F9095942394BB95B3892B85BB089551
S11302E041B321E030E0B90102C0660F771F8A955F
S11302F0E2F7CB01962F9095942391BB92B3892B6F
S113030082BB0895CF93C0E009C0EC2FF0E0E05A1F
S1130310FF4F60818C2F0E948500CF5FC032A8F30D
S1130320CF910895982F96959695969587706130FC
S1130330E1F5913099F028F09230E9F0933041F1F1
S113034008954BB321E030E0B90102C0660F771F76
S11303508A95E2F7CB01842B8BBB089548B321E047
S113036030E0B90102C0660F771F8A95E2F7CB012E
S1130370842B88BB089545B321E030E0B90102C065
S1130380660F771F8A95E2F7CB01842B85BB08950E
S113039042B321E030E0B90102C0660F771F8A95AD
S11303A0E2F7CB01842B82BB089561113FC09130E9
S11303B0A1F028F09230F9F0933059F108954BB33D
S11303C021E030E0B90102C0660F771F8A95E2F799
S11303D0CB01809584238BBB089548B321E030E0A2
S11303E0B90102C0660F771F8A95E2F7CB018095A9
S11303F0842388BB089545B321E030E0B90102C0ED
S1130400660F771F8A95E2F7CB018095842385BB1D
S1130410089542B321E030E0B90102C0660F771FAE
S11304208A95E2F7CB018095842382BB0895CF930C
S1130430C82F60E081E00E9492016C2F661F66273E
S1130440661F86E00E949201C6FB662760F985E07C
S11304500E949201C5FB662760F984E00E94920124
S1130460C4FB662760F983E00E94920161E082E0A8
S11304700E9492018FEC97E00197F1F700C0000011
S113048060E082E00E9492018FEC97E00197F1F71F
S113049000C00000C3FB662760F986E00E94920159
S11304A0C2FB662760F985E00E949201C1FB6627C2
S11304B060F984E00E9492016C2F617083E00E94D5
S11304C0920161E082E00E9492018FEC97E0019733
S11304D0F1F700C0000060E082E00E9492018FEC1E
S11304E097E00197F1F700C00000CF910895CF93F2
S11304F0C82F61E081E00E9492016C2F661F66277D
S1130500661F86E00E949201C6FB662760F985E0BB
S11305100E949201C5FB662760F984E00E94920163
S1130520C4FB662760F983E00E94920161E082E0E7
S11305300E9492018FEC97E00197F1F700C0000050
S113054060E082E00E9492018FEC97E00197F1F75E
S113055000C00000C3FB662760F986E00E94920198
S1130560C2FB662760F985E00E949201C1FB662701
S113057060F984E00E9492016C2F617083E00E9414
S1130580920161E082E00E9492018FEC97E0019772
S1130590F1F700C0000060E082E00E9492018FEC5D
S11305A097E00197F1F700C00000CF9108952FE77D
S11305B088E391E0215080409040E1F700C00000C2
S11305C082E00E94170288E20E9417028CE00E94D7
S11305D0170281E00E9417028FEC97E00197F1F770
S11305E000C0000086E00E94170208950E9477026E
S11305F00895CF92DF92EF92FF921F93CF93DF93F0
S1130600CDB7DEB72A970FB6F894DEBF0FBECDBFC5
S11306106B017C01611571058105910521F480E36D
S11306200E94F60239C099235CF4F094E094D094CB
S1130630C094C11CD11CE11CF11C8DE20E94F60285
S113064010E015C0C701B6012AE030E040E050E0F8
S11306500E945A03E1E0F0E0EC0FFD1FE10FF11DF1
S1130660605D60831F5FC22ED32EE42EF52EC1146D
S1130670D104E104F10431F70DC0E12FF0E031972A
S113068081E090E08C0F9D1FE80FF91F80810E948C
S1130690F60211501111F1CF2A960FB6F894DEBF6D
S11306A00FBECDBFDF91CF911F91FF90EF90DF90F0
S11306B0CF900895052E97FB1EF400940E947103B9
S11306C057FD07D00E94790307FC03D04EF40C9425
S11306D0710350954095309521953F4F4F4F5F4F93
S11306E0089590958095709561957F4F8F4F9F4F9A
S11306F00895A1E21A2EAA1BBB1BFD010DC0AA1F5F
S1130700BB1FEE1FFF1FA217B307E407F50720F076
S1130710A21BB30BE40BF50B661F771F881F991FF1
S11307201A9469F760957095809590959B01AC013A
S10D0730BD01CF010895F894FFCF36
S113073A01000000000000000000000000000000AA
S113074A0000000000000000000202020202000091
S9030000FC
